{
  "_format": "hh-sol-artifact-1",
  "contractName": "EvidenceStorage",
  "sourceName": "contracts/EvidenceStorage.sol",
  "abi": [
    {
      "anonymous": false,
      "inputs": [
        {
          "indexed": true,
          "internalType": "string",
          "name": "caseId",
          "type": "string"
        },
        {
          "indexed": false,
          "internalType": "string",
          "name": "caseName",
          "type": "string"
        },
        {
          "indexed": false,
          "internalType": "string",
          "name": "description",
          "type": "string"
        },
        {
          "indexed": false,
          "internalType": "address",
          "name": "owner",
          "type": "address"
        },
        {
          "indexed": false,
          "internalType": "uint256",
          "name": "timestamp",
          "type": "uint256"
        }
      ],
      "name": "CaseCreated",
      "type": "event"
    },
    {
      "anonymous": false,
      "inputs": [
        {
          "indexed": false,
          "internalType": "string",
          "name": "message",
          "type": "string"
        },
        {
          "indexed": false,
          "internalType": "string",
          "name": "value",
          "type": "string"
        }
      ],
      "name": "DebugLog",
      "type": "event"
    },
    {
      "anonymous": false,
      "inputs": [
        {
          "indexed": true,
          "internalType": "string",
          "name": "caseId",
          "type": "string"
        },
        {
          "indexed": true,
          "internalType": "string",
          "name": "parentId",
          "type": "string"
        },
        {
          "indexed": false,
          "internalType": "string",
          "name": "id",
          "type": "string"
        },
        {
          "indexed": false,
          "internalType": "string",
          "name": "name",
          "type": "string"
        },
        {
          "indexed": false,
          "internalType": "bool",
          "name": "isFolder",
          "type": "bool"
        },
        {
          "indexed": false,
          "internalType": "uint256",
          "name": "timestamp",
          "type": "uint256"
        }
      ],
      "name": "EvidenceStored",
      "type": "event"
    },
    {
      "anonymous": false,
      "inputs": [
        {
          "indexed": true,
          "internalType": "string",
          "name": "caseId",
          "type": "string"
        },
        {
          "indexed": true,
          "internalType": "address",
          "name": "user",
          "type": "address"
        },
        {
          "indexed": false,
          "internalType": "enum EvidenceStorage.Role",
          "name": "role",
          "type": "uint8"
        },
        {
          "indexed": false,
          "internalType": "uint256",
          "name": "timestamp",
          "type": "uint256"
        }
      ],
      "name": "RoleAssigned",
      "type": "event"
    },
    {
      "inputs": [
        {
          "internalType": "string",
          "name": "caseId",
          "type": "string"
        },
        {
          "internalType": "address",
          "name": "user",
          "type": "address"
        },
        {
          "internalType": "address",
          "name": "uploader",
          "type": "address"
        },
        {
          "internalType": "enum EvidenceStorage.Role",
          "name": "role",
          "type": "uint8"
        }
      ],
      "name": "assignRole",
      "outputs": [],
      "stateMutability": "nonpayable",
      "type": "function"
    },
    {
      "inputs": [
        {
          "internalType": "string",
          "name": "",
          "type": "string"
        },
        {
          "internalType": "uint256",
          "name": "",
          "type": "uint256"
        }
      ],
      "name": "caseEvidence",
      "outputs": [
        {
          "internalType": "string",
          "name": "",
          "type": "string"
        }
      ],
      "stateMutability": "view",
      "type": "function"
    },
    {
      "inputs": [
        {
          "internalType": "string",
          "name": "",
          "type": "string"
        }
      ],
      "name": "cases",
      "outputs": [
        {
          "internalType": "string",
          "name": "caseId",
          "type": "string"
        },
        {
          "internalType": "string",
          "name": "caseName",
          "type": "string"
        },
        {
          "internalType": "string",
          "name": "description",
          "type": "string"
        },
        {
          "internalType": "uint256",
          "name": "createdAt",
          "type": "uint256"
        },
        {
          "internalType": "address",
          "name": "owner",
          "type": "address"
        }
      ],
      "stateMutability": "view",
      "type": "function"
    },
    {
      "inputs": [
        {
          "internalType": "string",
          "name": "caseId",
          "type": "string"
        },
        {
          "internalType": "string",
          "name": "caseName",
          "type": "string"
        },
        {
          "internalType": "string",
          "name": "description",
          "type": "string"
        }
      ],
      "name": "createCase",
      "outputs": [],
      "stateMutability": "nonpayable",
      "type": "function"
    },
    {
      "inputs": [
        {
          "internalType": "string",
          "name": "",
          "type": "string"
        }
      ],
      "name": "evidenceRecords",
      "outputs": [
        {
          "internalType": "string",
          "name": "id",
          "type": "string"
        },
        {
          "internalType": "string",
          "name": "name",
          "type": "string"
        },
        {
          "internalType": "string",
          "name": "ipfsHash",
          "type": "string"
        },
        {
          "internalType": "string",
          "name": "sha256Hash",
          "type": "string"
        },
        {
          "internalType": "string",
          "name": "mimeType",
          "type": "string"
        },
        {
          "internalType": "address",
          "name": "uploader",
          "type": "address"
        },
        {
          "internalType": "uint256",
          "name": "timestamp",
          "type": "uint256"
        },
        {
          "internalType": "bool",
          "name": "isFolder",
          "type": "bool"
        },
        {
          "internalType": "string",
          "name": "parentId",
          "type": "string"
        },
        {
          "internalType": "string",
          "name": "description",
          "type": "string"
        }
      ],
      "stateMutability": "view",
      "type": "function"
    },
    {
      "inputs": [
        {
          "internalType": "string",
          "name": "",
          "type": "string"
        },
        {
          "internalType": "uint256",
          "name": "",
          "type": "uint256"
        }
      ],
      "name": "folderContents",
      "outputs": [
        {
          "internalType": "string",
          "name": "",
          "type": "string"
        }
      ],
      "stateMutability": "view",
      "type": "function"
    },
    {
      "inputs": [
        {
          "components": [
            {
              "internalType": "string",
              "name": "caseId",
              "type": "string"
            },
            {
              "internalType": "string",
              "name": "id",
              "type": "string"
            },
            {
              "internalType": "string",
              "name": "name",
              "type": "string"
            },
            {
              "internalType": "string",
              "name": "ipfsHash",
              "type": "string"
            },
            {
              "internalType": "string",
              "name": "sha256Hash",
              "type": "string"
            },
            {
              "internalType": "string",
              "name": "mimeType",
              "type": "string"
            },
            {
              "internalType": "address",
              "name": "uploader",
              "type": "address"
            },
            {
              "internalType": "bool",
              "name": "isFolder",
              "type": "bool"
            },
            {
              "internalType": "string",
              "name": "parentId",
              "type": "string"
            },
            {
              "internalType": "string",
              "name": "description",
              "type": "string"
            }
          ],
          "internalType": "struct EvidenceStorage.EvidenceData[]",
          "name": "files",
          "type": "tuple[]"
        },
        {
          "internalType": "string",
          "name": "batchId",
          "type": "string"
        },
        {
          "internalType": "address",
          "name": "uploader",
          "type": "address"
        }
      ],
      "name": "getBatchDataHash",
      "outputs": [
        {
          "internalType": "bytes32",
          "name": "",
          "type": "bytes32"
        }
      ],
      "stateMutability": "pure",
      "type": "function"
    },
    {
      "inputs": [
        {
          "internalType": "string",
          "name": "caseId",
          "type": "string"
        }
      ],
      "name": "getCaseRootContents",
      "outputs": [
        {
          "internalType": "string[]",
          "name": "",
          "type": "string[]"
        }
      ],
      "stateMutability": "view",
      "type": "function"
    },
    {
      "inputs": [
        {
          "components": [
            {
              "internalType": "string",
              "name": "caseId",
              "type": "string"
            },
            {
              "internalType": "string",
              "name": "id",
              "type": "string"
            },
            {
              "internalType": "string",
              "name": "name",
              "type": "string"
            },
            {
              "internalType": "string",
              "name": "ipfsHash",
              "type": "string"
            },
            {
              "internalType": "string",
              "name": "sha256Hash",
              "type": "string"
            },
            {
              "internalType": "string",
              "name": "mimeType",
              "type": "string"
            },
            {
              "internalType": "address",
              "name": "uploader",
              "type": "address"
            },
            {
              "internalType": "bool",
              "name": "isFolder",
              "type": "bool"
            },
            {
              "internalType": "string",
              "name": "parentId",
              "type": "string"
            },
            {
              "internalType": "string",
              "name": "description",
              "type": "string"
            }
          ],
          "internalType": "struct EvidenceStorage.EvidenceData",
          "name": "evidenceData",
          "type": "tuple"
        }
      ],
      "name": "getDataHash",
      "outputs": [
        {
          "internalType": "bytes32",
          "name": "",
          "type": "bytes32"
        }
      ],
      "stateMutability": "pure",
      "type": "function"
    },
    {
      "inputs": [
        {
          "internalType": "string",
          "name": "folderId",
          "type": "string"
        }
      ],
      "name": "getFolderContents",
      "outputs": [
        {
          "internalType": "string[]",
          "name": "",
          "type": "string[]"
        }
      ],
      "stateMutability": "view",
      "type": "function"
    },
    {
      "inputs": [
        {
          "internalType": "string",
          "name": "caseId",
          "type": "string"
        }
      ],
      "name": "getFullCaseTree",
      "outputs": [
        {
          "internalType": "string[]",
          "name": "",
          "type": "string[]"
        }
      ],
      "stateMutability": "view",
      "type": "function"
    },
    {
      "inputs": [
        {
          "internalType": "string",
          "name": "username",
          "type": "string"
        },
        {
          "internalType": "string",
          "name": "password",
          "type": "string"
        },
        {
          "internalType": "address",
          "name": "uploader",
          "type": "address"
        }
      ],
      "name": "getLoginHash",
      "outputs": [
        {
          "internalType": "bytes32",
          "name": "",
          "type": "bytes32"
        }
      ],
      "stateMutability": "pure",
      "type": "function"
    },
    {
      "inputs": [
        {
          "internalType": "string",
          "name": "caseId",
          "type": "string"
        },
        {
          "internalType": "address",
          "name": "user",
          "type": "address"
        }
      ],
      "name": "getRole",
      "outputs": [
        {
          "internalType": "enum EvidenceStorage.Role",
          "name": "role",
          "type": "uint8"
        }
      ],
      "stateMutability": "view",
      "type": "function"
    },
    {
      "inputs": [
        {
          "internalType": "string",
          "name": "caseId",
          "type": "string"
        },
        {
          "internalType": "address",
          "name": "user",
          "type": "address"
        },
        {
          "internalType": "address",
          "name": "uploader",
          "type": "address"
        },
        {
          "internalType": "enum EvidenceStorage.Role",
          "name": "role",
          "type": "uint8"
        }
      ],
      "name": "getRoleHash",
      "outputs": [
        {
          "internalType": "bytes32",
          "name": "",
          "type": "bytes32"
        }
      ],
      "stateMutability": "pure",
      "type": "function"
    },
    {
      "inputs": [
        {
          "internalType": "bytes32",
          "name": "message",
          "type": "bytes32"
        },
        {
          "internalType": "bytes",
          "name": "signature",
          "type": "bytes"
        }
      ],
      "name": "recoverSigner",
      "outputs": [
        {
          "internalType": "address",
          "name": "",
          "type": "address"
        }
      ],
      "stateMutability": "pure",
      "type": "function"
    },
    {
      "inputs": [
        {
          "internalType": "bytes",
          "name": "sig",
          "type": "bytes"
        }
      ],
      "name": "splitSignature",
      "outputs": [
        {
          "internalType": "bytes32",
          "name": "r",
          "type": "bytes32"
        },
        {
          "internalType": "bytes32",
          "name": "s",
          "type": "bytes32"
        },
        {
          "internalType": "uint8",
          "name": "v",
          "type": "uint8"
        }
      ],
      "stateMutability": "pure",
      "type": "function"
    },
    {
      "inputs": [
        {
          "components": [
            {
              "internalType": "string",
              "name": "caseId",
              "type": "string"
            },
            {
              "internalType": "string",
              "name": "id",
              "type": "string"
            },
            {
              "internalType": "string",
              "name": "name",
              "type": "string"
            },
            {
              "internalType": "string",
              "name": "ipfsHash",
              "type": "string"
            },
            {
              "internalType": "string",
              "name": "sha256Hash",
              "type": "string"
            },
            {
              "internalType": "string",
              "name": "mimeType",
              "type": "string"
            },
            {
              "internalType": "address",
              "name": "uploader",
              "type": "address"
            },
            {
              "internalType": "bool",
              "name": "isFolder",
              "type": "bool"
            },
            {
              "internalType": "string",
              "name": "parentId",
              "type": "string"
            },
            {
              "internalType": "string",
              "name": "description",
              "type": "string"
            }
          ],
          "internalType": "struct EvidenceStorage.EvidenceData[]",
          "name": "files",
          "type": "tuple[]"
        },
        {
          "internalType": "string",
          "name": "batchId",
          "type": "string"
        },
        {
          "internalType": "address",
          "name": "uploader",
          "type": "address"
        },
        {
          "internalType": "bytes",
          "name": "signature",
          "type": "bytes"
        }
      ],
      "name": "storeBatchEvidence",
      "outputs": [],
      "stateMutability": "nonpayable",
      "type": "function"
    },
    {
      "inputs": [
        {
          "components": [
            {
              "internalType": "string",
              "name": "caseId",
              "type": "string"
            },
            {
              "internalType": "string",
              "name": "id",
              "type": "string"
            },
            {
              "internalType": "string",
              "name": "name",
              "type": "string"
            },
            {
              "internalType": "string",
              "name": "ipfsHash",
              "type": "string"
            },
            {
              "internalType": "string",
              "name": "sha256Hash",
              "type": "string"
            },
            {
              "internalType": "string",
              "name": "mimeType",
              "type": "string"
            },
            {
              "internalType": "address",
              "name": "uploader",
              "type": "address"
            },
            {
              "internalType": "bool",
              "name": "isFolder",
              "type": "bool"
            },
            {
              "internalType": "string",
              "name": "parentId",
              "type": "string"
            },
            {
              "internalType": "string",
              "name": "description",
              "type": "string"
            }
          ],
          "internalType": "struct EvidenceStorage.EvidenceData",
          "name": "evidenceData",
          "type": "tuple"
        },
        {
          "internalType": "bytes",
          "name": "signature",
          "type": "bytes"
        }
      ],
      "name": "storeEvidence",
      "outputs": [],
      "stateMutability": "nonpayable",
      "type": "function"
    },
    {
      "inputs": [
        {
          "internalType": "address",
          "name": "",
          "type": "address"
        },
        {
          "internalType": "string",
          "name": "",
          "type": "string"
        }
      ],
      "name": "userRoles",
      "outputs": [
        {
          "internalType": "enum EvidenceStorage.Role",
          "name": "",
          "type": "uint8"
        }
      ],
      "stateMutability": "view",
      "type": "function"
    }
  ],
  "bytecode": "0x6080604052348015600f57600080fd5b506145818061001f6000396000f3fe608060405234801561001057600080fd5b50600436106101215760003560e01c80637fd730c7116100ad578063bccb53ab11610071578063bccb53ab146103a9578063be76367b146103c5578063c54697c3146103f5578063df96582914610425578063e884b3c71461045957610121565b80637fd730c7146102cb57806397aba7f9146102fb5780639d03e0281461032b5780639d5061f91461035b578063a7bb58031461037757610121565b80632d1ad1fa116100f45780632d1ad1fa146101e657806339ed370e146102165780634522ae2a1461024f57806349b73f691461026b578063795a051b1461029b57610121565b806309a72ea1146101265780630e1db48d14610156578063167d02b3146101865780632a648e64146101b6575b600080fd5b610140600480360381019061013b9190612a51565b610475565b60405161014d9190612aed565b60405180910390f35b610170600480360381019061016b9190612b08565b6104ae565b60405161017d9190612bdb565b60405180910390f35b6101a0600480360381019061019b9190612e0e565b6104f3565b6040516101ad9190612aed565b60405180910390f35b6101d060048036038101906101cb9190612e57565b61055f565b6040516101dd9190612fe1565b60405180910390f35b61020060048036038101906101fb9190613003565b610656565b60405161020d9190612bdb565b60405180910390f35b610230600480360381019061022b9190612e57565b6106c9565b6040516102469a999897969594939291906130e0565b60405180910390f35b61026960048036038101906102649190612a51565b610b18565b005b61028560048036038101906102809190612e57565b610cda565b6040516102929190612fe1565b60405180910390f35b6102b560048036038101906102b09190612e57565b611005565b6040516102c29190612fe1565b60405180910390f35b6102e560048036038101906102e091906131d9565b6110fc565b6040516102f29190613235565b60405180910390f35b61031560048036038101906103109190613324565b6111cb565b6040516103229190613380565b60405180910390f35b61034560048036038101906103409190613481565b611266565b6040516103529190612aed565b60405180910390f35b6103756004803603810190610370919061350c565b61129d565b005b610391600480360381019061038c91906135b3565b6114d9565b6040516103a093929190613618565b60405180910390f35b6103c360048036038101906103be919061364f565b611541565b005b6103df60048036038101906103da91906136c7565b611c22565b6040516103ec9190612aed565b60405180910390f35b61040f600480360381019061040a91906131d9565b611c58565b60405161041c9190613235565b60405180910390f35b61043f600480360381019061043a9190612e57565b611d27565b604051610450959493929190613752565b60405180910390f35b610473600480360381019061046e91906137ba565b611f2b565b005b60008484848460405160200161048e949392919061392f565b604051602081830303815290604052805190602001209050949350505050565b6004602052816000526040600020818051602081018201805184825260208301602085012081835280955050505050506000915091509054906101000a900460ff1681565b6000816000015182602001518360400151846060015185608001518660a001518760c001518860e001518961010001518a61012001516040516020016105429a999897969594939291906139a2565b604051602081830303815290604052805190602001209050919050565b60606003826040516105719190613a36565b9081526020016040518091039020805480602002602001604051908101604052809291908181526020016000905b8282101561064b5783829060005260206000200180546105be90613a7c565b80601f01602080910402602001604051908101604052809291908181526020018280546105ea90613a7c565b80156106375780601f1061060c57610100808354040283529160200191610637565b820191906000526020600020905b81548152906001019060200180831161061a57829003601f168201915b50505050508152602001906001019061059f565b505050509050919050565b6000600460008373ffffffffffffffffffffffffffffffffffffffff1673ffffffffffffffffffffffffffffffffffffffff168152602001908152602001600020836040516106a59190613a36565b908152602001604051809103902060009054906101000a900460ff16905092915050565b60018180516020810182018051848252602083016020850120818352809550505050505060009150905080600001805461070290613a7c565b80601f016020809104026020016040519081016040528092919081815260200182805461072e90613a7c565b801561077b5780601f106107505761010080835404028352916020019161077b565b820191906000526020600020905b81548152906001019060200180831161075e57829003601f168201915b50505050509080600101805461079090613a7c565b80601f01602080910402602001604051908101604052809291908181526020018280546107bc90613a7c565b80156108095780601f106107de57610100808354040283529160200191610809565b820191906000526020600020905b8154815290600101906020018083116107ec57829003601f168201915b50505050509080600201805461081e90613a7c565b80601f016020809104026020016040519081016040528092919081815260200182805461084a90613a7c565b80156108975780601f1061086c57610100808354040283529160200191610897565b820191906000526020600020905b81548152906001019060200180831161087a57829003601f168201915b5050505050908060030180546108ac90613a7c565b80601f01602080910402602001604051908101604052809291908181526020018280546108d890613a7c565b80156109255780601f106108fa57610100808354040283529160200191610925565b820191906000526020600020905b81548152906001019060200180831161090857829003601f168201915b50505050509080600401805461093a90613a7c565b80601f016020809104026020016040519081016040528092919081815260200182805461096690613a7c565b80156109b35780601f10610988576101008083540402835291602001916109b3565b820191906000526020600020905b81548152906001019060200180831161099657829003601f168201915b5050505050908060050160009054906101000a900473ffffffffffffffffffffffffffffffffffffffff16908060060154908060070160009054906101000a900460ff1690806008018054610a0790613a7c565b80601f0160208091040260200160405190810160405280929190818152602001828054610a3390613a7c565b8015610a805780601f10610a5557610100808354040283529160200191610a80565b820191906000526020600020905b815481529060010190602001808311610a6357829003601f168201915b505050505090806009018054610a9590613a7c565b80601f0160208091040260200160405190810160405280929190818152602001828054610ac190613a7c565b8015610b0e5780601f10610ae357610100808354040283529160200191610b0e565b820191906000526020600020905b815481529060010190602001808311610af157829003601f168201915b505050505090508a565b838260016003811115610b2e57610b2d612b64565b5b600460008373ffffffffffffffffffffffffffffffffffffffff1673ffffffffffffffffffffffffffffffffffffffff16815260200190815260200160002083604051610b7b9190613a36565b908152602001604051809103902060009054906101000a900460ff166003811115610ba957610ba8612b64565b5b14610be9576040517f08c379a0000000000000000000000000000000000000000000000000000000008152600401610be090613af9565b60405180910390fd5b82600460008773ffffffffffffffffffffffffffffffffffffffff1673ffffffffffffffffffffffffffffffffffffffff16815260200190815260200160002087604051610c379190613a36565b908152602001604051809103902060006101000a81548160ff02191690836003811115610c6757610c66612b64565b5b02179055508473ffffffffffffffffffffffffffffffffffffffff1686604051610c919190613a36565b60405180910390207f71aac95feb5f4452bb18d4353d774370a5d377e91c9cd2c16aba0c124017a7048542604051610cca929190613b19565b60405180910390a3505050505050565b60606000600383604051610cee9190613a36565b9081526020016040518091039020805480602002602001604051908101604052809291908181526020016000905b82821015610dc8578382906000526020600020018054610d3b90613a7c565b80601f0160208091040260200160405190810160405280929190818152602001828054610d6790613a7c565b8015610db45780601f10610d8957610100808354040283529160200191610db4565b820191906000526020600020905b815481529060010190602001808311610d9757829003601f168201915b505050505081526020019060010190610d1c565b50505050905060008151905060005b8251811015610e6c576001838281518110610df557610df4613b42565b5b6020026020010151604051610e0a9190613a36565b908152602001604051809103902060070160009054906101000a900460ff1615610e5f57610e51838281518110610e4457610e43613b42565b5b60200260200101516124bc565b82610e5c9190613ba0565b91505b8080600101915050610dd7565b5060008167ffffffffffffffff811115610e8957610e886128a3565b5b604051908082528060200260200182016040528015610ebc57816020015b6060815260200190600190039081610ea75790505b5090506000805b8451811015610ff857848181518110610edf57610ede613b42565b5b6020026020010151838381518110610efa57610ef9613b42565b5b60200260200101819052508180610f1090613bd4565b9250506001858281518110610f2857610f27613b42565b5b6020026020010151604051610f3d9190613a36565b908152602001604051809103902060070160009054906101000a900460ff1615610feb576000610f86868381518110610f7957610f78613b42565b5b6020026020010151612634565b905060005b8151811015610fe857818181518110610fa757610fa6613b42565b5b6020026020010151858581518110610fc257610fc1613b42565b5b60200260200101819052508380610fd890613bd4565b9450508080600101915050610f8b565b50505b8080600101915050610ec3565b5081945050505050919050565b60606002826040516110179190613a36565b9081526020016040518091039020805480602002602001604051908101604052809291908181526020016000905b828210156110f157838290600052602060002001805461106490613a7c565b80601f016020809104026020016040519081016040528092919081815260200182805461109090613a7c565b80156110dd5780601f106110b2576101008083540402835291602001916110dd565b820191906000526020600020905b8154815290600101906020018083116110c057829003601f168201915b505050505081526020019060010190611045565b505050509050919050565b600382805160208101820180518482526020830160208501208183528095505050505050818154811061112e57600080fd5b9060005260206000200160009150915050805461114a90613a7c565b80601f016020809104026020016040519081016040528092919081815260200182805461117690613a7c565b80156111c35780601f10611198576101008083540402835291602001916111c3565b820191906000526020600020905b8154815290600101906020018083116111a657829003601f168201915b505050505081565b600080836040516020016111df9190613c89565b6040516020818303038152906040528051906020012090506000806000611205866114d9565b9250925092506001848285856040516000815260200160405260405161122e9493929190613caf565b6020604051602081039080840390855afa158015611250573d6000803e3d6000fd5b5050506020604051035194505050505092915050565b60008282855160405160200161127e93929190613d15565b6040516020818303038152906040528051906020012090509392505050565b600080846040516112ae9190613a36565b908152602001604051809103902060000180546112ca90613a7c565b90501461130c576040517f08c379a000000000000000000000000000000000000000000000000000000000815260040161130390613d9a565b60405180910390fd5b6040518060a001604052808481526020018381526020018281526020014281526020013373ffffffffffffffffffffffffffffffffffffffff168152506000846040516113599190613a36565b9081526020016040518091039020600082015181600001908161137c9190613f66565b5060208201518160010190816113929190613f66565b5060408201518160020190816113a89190613f66565b506060820151816003015560808201518160040160006101000a81548173ffffffffffffffffffffffffffffffffffffffff021916908373ffffffffffffffffffffffffffffffffffffffff1602179055509050506001600460003373ffffffffffffffffffffffffffffffffffffffff1673ffffffffffffffffffffffffffffffffffffffff1681526020019081526020016000208460405161144c9190613a36565b908152602001604051809103902060006101000a81548160ff0219169083600381111561147c5761147b612b64565b5b02179055508260405161148f9190613a36565b60405180910390207f56976bbbdcd6afdc6823914435991f18a00f3fd15578b830c42a51ac3a432800838333426040516114cc9493929190614038565b60405180910390a2505050565b60008060006041845114611522576040517f08c379a0000000000000000000000000000000000000000000000000000000008152600401611519906140d7565b60405180910390fd5b6020840151925060408401519150606084015160001a90509193909250565b81600001518260c001516001600381111561155f5761155e612b64565b5b600460008373ffffffffffffffffffffffffffffffffffffffff1673ffffffffffffffffffffffffffffffffffffffff168152602001908152602001600020836040516115ac9190613a36565b908152602001604051809103902060009054906101000a900460ff1660038111156115da576115d9612b64565b5b14806116725750600260038111156115f5576115f4612b64565b5b600460008373ffffffffffffffffffffffffffffffffffffffff1673ffffffffffffffffffffffffffffffffffffffff168152602001908152602001600020836040516116429190613a36565b908152602001604051809103902060009054906101000a900460ff1660038111156116705761166f612b64565b5b145b6116b1576040517f08c379a00000000000000000000000000000000000000000000000000000000081526004016116a890613af9565b60405180910390fd5b6000846020015151116116f9576040517f08c379a00000000000000000000000000000000000000000000000000000000081526004016116f090614143565b60405180910390fd5b600084604001515111611741576040517f08c379a0000000000000000000000000000000000000000000000000000000008152600401611738906141af565b60405180910390fd5b60008085600001516040516117569190613a36565b9081526020016040518091039020600001805461177290613a7c565b9050116117b4576040517f08c379a00000000000000000000000000000000000000000000000000000000081526004016117ab9061421b565b60405180910390fd5b8360e0015161189657600084606001515111611805576040517f08c379a00000000000000000000000000000000000000000000000000000000081526004016117fc90614287565b60405180910390fd5b60008460800151511161184d576040517f08c379a0000000000000000000000000000000000000000000000000000000008152600401611844906142f3565b60405180910390fd5b60008460a001515111611895576040517f08c379a000000000000000000000000000000000000000000000000000000000815260040161188c9061435f565b60405180910390fd5b5b60006118a1856104f3565b905060006118af82866111cb565b90508560c0015173ffffffffffffffffffffffffffffffffffffffff168173ffffffffffffffffffffffffffffffffffffffff1614611923576040517f08c379a000000000000000000000000000000000000000000000000000000000815260040161191a906143cb565b60405180910390fd5b604051806101400160405280876020015181526020018760400151815260200187606001518152602001876080015181526020018760a0015181526020018273ffffffffffffffffffffffffffffffffffffffff1681526020014281526020018760e00151151581526020018761010001518152602001876101200151815250600187602001516040516119b79190613a36565b908152602001604051809103902060008201518160000190816119da9190613f66565b5060208201518160010190816119f09190613f66565b506040820151816002019081611a069190613f66565b506060820151816003019081611a1c9190613f66565b506080820151816004019081611a329190613f66565b5060a08201518160050160006101000a81548173ffffffffffffffffffffffffffffffffffffffff021916908373ffffffffffffffffffffffffffffffffffffffff16021790555060c0820151816006015560e08201518160070160006101000a81548160ff021916908315150217905550610100820151816008019081611aba9190613f66565b50610120820151816009019081611ad19190613f66565b5090505060008661010001515103611b415760038660000151604051611af79190613a36565b90815260200160405180910390208660200151908060018154018082558091505060019003906000526020600020016000909190919091509081611b3b9190613f66565b50611b9c565b6002866101000151604051611b569190613a36565b90815260200160405180910390208660200151908060018154018082558091505060019003906000526020600020016000909190919091509081611b9a9190613f66565b505b856101000151604051611baf9190613a36565b60405180910390208660000151604051611bc99190613a36565b60405180910390207fdf29748d1737b09bc5bdaf6aa4e229e75999dc975d10e231d756bd296128eab7886020015189604001518a60e0015142604051611c1294939291906143eb565b60405180910390a3505050505050565b6000838383604051602001611c399392919061443e565b6040516020818303038152906040528051906020012090509392505050565b6002828051602081018201805184825260208301602085012081835280955050505050508181548110611c8a57600080fd5b90600052602060002001600091509150508054611ca690613a7c565b80601f0160208091040260200160405190810160405280929190818152602001828054611cd290613a7c565b8015611d1f5780601f10611cf457610100808354040283529160200191611d1f565b820191906000526020600020905b815481529060010190602001808311611d0257829003601f168201915b505050505081565b600081805160208101820180518482526020830160208501208183528095505050505050600091509050806000018054611d6090613a7c565b80601f0160208091040260200160405190810160405280929190818152602001828054611d8c90613a7c565b8015611dd95780601f10611dae57610100808354040283529160200191611dd9565b820191906000526020600020905b815481529060010190602001808311611dbc57829003601f168201915b505050505090806001018054611dee90613a7c565b80601f0160208091040260200160405190810160405280929190818152602001828054611e1a90613a7c565b8015611e675780601f10611e3c57610100808354040283529160200191611e67565b820191906000526020600020905b815481529060010190602001808311611e4a57829003601f168201915b505050505090806002018054611e7c90613a7c565b80601f0160208091040260200160405190810160405280929190818152602001828054611ea890613a7c565b8015611ef55780601f10611eca57610100808354040283529160200191611ef5565b820191906000526020600020905b815481529060010190602001808311611ed857829003601f168201915b5050505050908060030154908060040160009054906101000a900473ffffffffffffffffffffffffffffffffffffffff16905085565b83600081518110611f3f57611f3e613b42565b5b6020026020010151600001518260016003811115611f6057611f5f612b64565b5b600460008373ffffffffffffffffffffffffffffffffffffffff1673ffffffffffffffffffffffffffffffffffffffff16815260200190815260200160002083604051611fad9190613a36565b908152602001604051809103902060009054906101000a900460ff166003811115611fdb57611fda612b64565b5b1480612073575060026003811115611ff657611ff5612b64565b5b600460008373ffffffffffffffffffffffffffffffffffffffff1673ffffffffffffffffffffffffffffffffffffffff168152602001908152602001600020836040516120439190613a36565b908152602001604051809103902060009054906101000a900460ff16600381111561207157612070612b64565b5b145b6120b2576040517f08c379a00000000000000000000000000000000000000000000000000000000081526004016120a990613af9565b60405180910390fd5b60008651116120f6576040517f08c379a00000000000000000000000000000000000000000000000000000000081526004016120ed906144bf565b60405180910390fd5b6000612103878787611266565b9050600061211182866111cb565b90508573ffffffffffffffffffffffffffffffffffffffff168173ffffffffffffffffffffffffffffffffffffffff1614612181576040517f08c379a00000000000000000000000000000000000000000000000000000000081526004016121789061452b565b60405180910390fd5b60005b88518110156124b15760008982815181106121a2576121a1613b42565b5b60200260200101519050604051806101400160405280826020015181526020018260400151815260200182606001518152602001826080015181526020018260a0015181526020018473ffffffffffffffffffffffffffffffffffffffff1681526020014281526020018260e00151151581526020018261010001518152602001826101200151815250600182602001516040516122409190613a36565b908152602001604051809103902060008201518160000190816122639190613f66565b5060208201518160010190816122799190613f66565b50604082015181600201908161228f9190613f66565b5060608201518160030190816122a59190613f66565b5060808201518160040190816122bb9190613f66565b5060a08201518160050160006101000a81548173ffffffffffffffffffffffffffffffffffffffff021916908373ffffffffffffffffffffffffffffffffffffffff16021790555060c0820151816006015560e08201518160070160006101000a81548160ff0219169083151502179055506101008201518160080190816123439190613f66565b5061012082015181600901908161235a9190613f66565b50905050600081610100015151036123ca57600381600001516040516123809190613a36565b908152602001604051809103902081602001519080600181540180825580915050600190039060005260206000200160009091909190915090816123c49190613f66565b50612425565b60028161010001516040516123df9190613a36565b908152602001604051809103902081602001519080600181540180825580915050600190039060005260206000200160009091909190915090816124239190613f66565b505b8061010001516040516124389190613a36565b604051809103902081600001516040516124529190613a36565b60405180910390207fdf29748d1737b09bc5bdaf6aa4e229e75999dc975d10e231d756bd296128eab7836020015184604001518560e001514260405161249b94939291906143eb565b60405180910390a3508080600101915050612184565b505050505050505050565b60006002826040516124ce9190613a36565b908152602001604051809103902080549050905060005b6002836040516124f59190613a36565b90815260200160405180910390208054905081101561262e5760006002846040516125209190613a36565b908152602001604051809103902082815481106125405761253f613b42565b5b90600052602060002001805461255590613a7c565b80601f016020809104026020016040519081016040528092919081815260200182805461258190613a7c565b80156125ce5780601f106125a3576101008083540402835291602001916125ce565b820191906000526020600020905b8154815290600101906020018083116125b157829003601f168201915b505050505090506001816040516125e59190613a36565b908152602001604051809103902060070160009054906101000a900460ff161561262057612612816124bc565b8361261d9190613ba0565b92505b5080806001019150506124e5565b50919050565b60606000612641836124bc565b905060008167ffffffffffffffff81111561265f5761265e6128a3565b5b60405190808252806020026020018201604052801561269257816020015b606081526020019060019003908161267d5790505b5090506000805b6002866040516126a99190613a36565b9081526020016040518091039020805490508110156128685760006002876040516126d49190613a36565b908152602001604051809103902082815481106126f4576126f3613b42565b5b90600052602060002001805461270990613a7c565b80601f016020809104026020016040519081016040528092919081815260200182805461273590613a7c565b80156127825780601f1061275757610100808354040283529160200191612782565b820191906000526020600020905b81548152906001019060200180831161276557829003601f168201915b505050505090508084848151811061279d5761279c613b42565b5b602002602001018190525082806127b390613bd4565b9350506001816040516127c69190613a36565b908152602001604051809103902060070160009054906101000a900460ff161561285a5760006127f582612634565b905060005b81518110156128575781818151811061281657612815613b42565b5b602002602001015186868151811061283157612830613b42565b5b6020026020010181905250848061284790613bd4565b95505080806001019150506127fa565b50505b508080600101915050612699565b50819350505050919050565b6000604051905090565b600080fd5b600080fd5b600080fd5b600080fd5b6000601f19601f8301169050919050565b7f4e487b7100000000000000000000000000000000000000000000000000000000600052604160045260246000fd5b6128db82612892565b810181811067ffffffffffffffff821117156128fa576128f96128a3565b5b80604052505050565b600061290d612874565b905061291982826128d2565b919050565b600067ffffffffffffffff821115612939576129386128a3565b5b61294282612892565b9050602081019050919050565b82818337600083830152505050565b600061297161296c8461291e565b612903565b90508281526020810184848401111561298d5761298c61288d565b5b61299884828561294f565b509392505050565b600082601f8301126129b5576129b4612888565b5b81356129c584826020860161295e565b91505092915050565b600073ffffffffffffffffffffffffffffffffffffffff82169050919050565b60006129f9826129ce565b9050919050565b612a09816129ee565b8114612a1457600080fd5b50565b600081359050612a2681612a00565b92915050565b60048110612a3957600080fd5b50565b600081359050612a4b81612a2c565b92915050565b60008060008060808587031215612a6b57612a6a61287e565b5b600085013567ffffffffffffffff811115612a8957612a88612883565b5b612a95878288016129a0565b9450506020612aa687828801612a17565b9350506040612ab787828801612a17565b9250506060612ac887828801612a3c565b91505092959194509250565b6000819050919050565b612ae781612ad4565b82525050565b6000602082019050612b026000830184612ade565b92915050565b60008060408385031215612b1f57612b1e61287e565b5b6000612b2d85828601612a17565b925050602083013567ffffffffffffffff811115612b4e57612b4d612883565b5b612b5a858286016129a0565b9150509250929050565b7f4e487b7100000000000000000000000000000000000000000000000000000000600052602160045260246000fd5b60048110612ba457612ba3612b64565b5b50565b6000819050612bb582612b93565b919050565b6000612bc582612ba7565b9050919050565b612bd581612bba565b82525050565b6000602082019050612bf06000830184612bcc565b92915050565b600080fd5b600080fd5b60008115159050919050565b612c1581612c00565b8114612c2057600080fd5b50565b600081359050612c3281612c0c565b92915050565b60006101408284031215612c4f57612c4e612bf6565b5b612c5a610140612903565b9050600082013567ffffffffffffffff811115612c7a57612c79612bfb565b5b612c86848285016129a0565b600083015250602082013567ffffffffffffffff811115612caa57612ca9612bfb565b5b612cb6848285016129a0565b602083015250604082013567ffffffffffffffff811115612cda57612cd9612bfb565b5b612ce6848285016129a0565b604083015250606082013567ffffffffffffffff811115612d0a57612d09612bfb565b5b612d16848285016129a0565b606083015250608082013567ffffffffffffffff811115612d3a57612d39612bfb565b5b612d46848285016129a0565b60808301525060a082013567ffffffffffffffff811115612d6a57612d69612bfb565b5b612d76848285016129a0565b60a08301525060c0612d8a84828501612a17565b60c08301525060e0612d9e84828501612c23565b60e08301525061010082013567ffffffffffffffff811115612dc357612dc2612bfb565b5b612dcf848285016129a0565b6101008301525061012082013567ffffffffffffffff811115612df557612df4612bfb565b5b612e01848285016129a0565b6101208301525092915050565b600060208284031215612e2457612e2361287e565b5b600082013567ffffffffffffffff811115612e4257612e41612883565b5b612e4e84828501612c38565b91505092915050565b600060208284031215612e6d57612e6c61287e565b5b600082013567ffffffffffffffff811115612e8b57612e8a612883565b5b612e97848285016129a0565b91505092915050565b600081519050919050565b600082825260208201905092915050565b6000819050602082019050919050565b600081519050919050565b600082825260208201905092915050565b60005b83811015612f06578082015181840152602081019050612eeb565b60008484015250505050565b6000612f1d82612ecc565b612f278185612ed7565b9350612f37818560208601612ee8565b612f4081612892565b840191505092915050565b6000612f578383612f12565b905092915050565b6000602082019050919050565b6000612f7782612ea0565b612f818185612eab565b935083602082028501612f9385612ebc565b8060005b85811015612fcf5784840389528151612fb08582612f4b565b9450612fbb83612f5f565b925060208a01995050600181019050612f97565b50829750879550505050505092915050565b60006020820190508181036000830152612ffb8184612f6c565b905092915050565b6000806040838503121561301a5761301961287e565b5b600083013567ffffffffffffffff81111561303857613037612883565b5b613044858286016129a0565b925050602061305585828601612a17565b9150509250929050565b600082825260208201905092915050565b600061307b82612ecc565b613085818561305f565b9350613095818560208601612ee8565b61309e81612892565b840191505092915050565b6130b2816129ee565b82525050565b6000819050919050565b6130cb816130b8565b82525050565b6130da81612c00565b82525050565b60006101408201905081810360008301526130fb818d613070565b9050818103602083015261310f818c613070565b90508181036040830152613123818b613070565b90508181036060830152613137818a613070565b9050818103608083015261314b8189613070565b905061315a60a08301886130a9565b61316760c08301876130c2565b61317460e08301866130d1565b8181036101008301526131878185613070565b905081810361012083015261319c8184613070565b90509b9a5050505050505050505050565b6131b6816130b8565b81146131c157600080fd5b50565b6000813590506131d3816131ad565b92915050565b600080604083850312156131f0576131ef61287e565b5b600083013567ffffffffffffffff81111561320e5761320d612883565b5b61321a858286016129a0565b925050602061322b858286016131c4565b9150509250929050565b6000602082019050818103600083015261324f8184613070565b905092915050565b61326081612ad4565b811461326b57600080fd5b50565b60008135905061327d81613257565b92915050565b600067ffffffffffffffff82111561329e5761329d6128a3565b5b6132a782612892565b9050602081019050919050565b60006132c76132c284613283565b612903565b9050828152602081018484840111156132e3576132e261288d565b5b6132ee84828561294f565b509392505050565b600082601f83011261330b5761330a612888565b5b813561331b8482602086016132b4565b91505092915050565b6000806040838503121561333b5761333a61287e565b5b60006133498582860161326e565b925050602083013567ffffffffffffffff81111561336a57613369612883565b5b613376858286016132f6565b9150509250929050565b600060208201905061339560008301846130a9565b92915050565b600067ffffffffffffffff8211156133b6576133b56128a3565b5b602082029050602081019050919050565b600080fd5b60006133df6133da8461339b565b612903565b90508083825260208201905060208402830185811115613402576134016133c7565b5b835b8181101561344957803567ffffffffffffffff81111561342757613426612888565b5b8086016134348982612c38565b85526020850194505050602081019050613404565b5050509392505050565b600082601f83011261346857613467612888565b5b81356134788482602086016133cc565b91505092915050565b60008060006060848603121561349a5761349961287e565b5b600084013567ffffffffffffffff8111156134b8576134b7612883565b5b6134c486828701613453565b935050602084013567ffffffffffffffff8111156134e5576134e4612883565b5b6134f1868287016129a0565b925050604061350286828701612a17565b9150509250925092565b6000806000606084860312156135255761352461287e565b5b600084013567ffffffffffffffff81111561354357613542612883565b5b61354f868287016129a0565b935050602084013567ffffffffffffffff8111156135705761356f612883565b5b61357c868287016129a0565b925050604084013567ffffffffffffffff81111561359d5761359c612883565b5b6135a9868287016129a0565b9150509250925092565b6000602082840312156135c9576135c861287e565b5b600082013567ffffffffffffffff8111156135e7576135e6612883565b5b6135f3848285016132f6565b91505092915050565b600060ff82169050919050565b613612816135fc565b82525050565b600060608201905061362d6000830186612ade565b61363a6020830185612ade565b6136476040830184613609565b949350505050565b600080604083850312156136665761366561287e565b5b600083013567ffffffffffffffff81111561368457613683612883565b5b61369085828601612c38565b925050602083013567ffffffffffffffff8111156136b1576136b0612883565b5b6136bd858286016132f6565b9150509250929050565b6000806000606084860312156136e0576136df61287e565b5b600084013567ffffffffffffffff8111156136fe576136fd612883565b5b61370a868287016129a0565b935050602084013567ffffffffffffffff81111561372b5761372a612883565b5b613737868287016129a0565b925050604061374886828701612a17565b9150509250925092565b600060a082019050818103600083015261376c8188613070565b905081810360208301526137808187613070565b905081810360408301526137948186613070565b90506137a360608301856130c2565b6137b060808301846130a9565b9695505050505050565b600080600080608085870312156137d4576137d361287e565b5b600085013567ffffffffffffffff8111156137f2576137f1612883565b5b6137fe87828801613453565b945050602085013567ffffffffffffffff81111561381f5761381e612883565b5b61382b878288016129a0565b935050604061383c87828801612a17565b925050606085013567ffffffffffffffff81111561385d5761385c612883565b5b613869878288016132f6565b91505092959194509250565b600081905092915050565b600061388b82612ecc565b6138958185613875565b93506138a5818560208601612ee8565b80840191505092915050565b60008160601b9050919050565b60006138c9826138b1565b9050919050565b60006138db826138be565b9050919050565b6138f36138ee826129ee565b6138d0565b82525050565b60008160f81b9050919050565b6000613911826138f9565b9050919050565b61392961392482612bba565b613906565b82525050565b600061393b8287613880565b915061394782866138e2565b60148201915061395782856138e2565b6014820191506139678284613918565b60018201915081905095945050505050565b600061398482613906565b9050919050565b61399c61399782612c00565b613979565b82525050565b60006139ae828d613880565b91506139ba828c613880565b91506139c6828b613880565b91506139d2828a613880565b91506139de8289613880565b91506139ea8288613880565b91506139f682876138e2565b601482019150613a06828661398b565b600182019150613a168285613880565b9150613a228284613880565b91508190509b9a5050505050505050505050565b6000613a428284613880565b915081905092915050565b7f4e487b7100000000000000000000000000000000000000000000000000000000600052602260045260246000fd5b60006002820490506001821680613a9457607f821691505b602082108103613aa757613aa6613a4d565b5b50919050565b7f4e6f7420617574686f72697a6564000000000000000000000000000000000000600082015250565b6000613ae3600e8361305f565b9150613aee82613aad565b602082019050919050565b60006020820190508181036000830152613b1281613ad6565b9050919050565b6000604082019050613b2e6000830185612bcc565b613b3b60208301846130c2565b9392505050565b7f4e487b7100000000000000000000000000000000000000000000000000000000600052603260045260246000fd5b7f4e487b7100000000000000000000000000000000000000000000000000000000600052601160045260246000fd5b6000613bab826130b8565b9150613bb6836130b8565b9250828201905080821115613bce57613bcd613b71565b5b92915050565b6000613bdf826130b8565b91507fffffffffffffffffffffffffffffffffffffffffffffffffffffffffffffffff8203613c1157613c10613b71565b5b600182019050919050565b7f19457468657265756d205369676e6564204d6573736167653a0a333200000000600082015250565b6000613c52601c83613875565b9150613c5d82613c1c565b601c82019050919050565b6000819050919050565b613c83613c7e82612ad4565b613c68565b82525050565b6000613c9482613c45565b9150613ca08284613c72565b60208201915081905092915050565b6000608082019050613cc46000830187612ade565b613cd16020830186613609565b613cde6040830185612ade565b613ceb6060830184612ade565b95945050505050565b6000819050919050565b613d0f613d0a826130b8565b613cf4565b82525050565b6000613d218286613880565b9150613d2d82856138e2565b601482019150613d3d8284613cfe565b602082019150819050949350505050565b7f4361736520616c72656164792065786973747300000000000000000000000000600082015250565b6000613d8460138361305f565b9150613d8f82613d4e565b602082019050919050565b60006020820190508181036000830152613db381613d77565b9050919050565b60008190508160005260206000209050919050565b60006020601f8301049050919050565b600082821b905092915050565b600060088302613e1c7fffffffffffffffffffffffffffffffffffffffffffffffffffffffffffffffff82613ddf565b613e268683613ddf565b95508019841693508086168417925050509392505050565b6000819050919050565b6000613e63613e5e613e59846130b8565b613e3e565b6130b8565b9050919050565b6000819050919050565b613e7d83613e48565b613e91613e8982613e6a565b848454613dec565b825550505050565b600090565b613ea6613e99565b613eb1818484613e74565b505050565b5b81811015613ed557613eca600082613e9e565b600181019050613eb7565b5050565b601f821115613f1a57613eeb81613dba565b613ef484613dcf565b81016020851015613f03578190505b613f17613f0f85613dcf565b830182613eb6565b50505b505050565b600082821c905092915050565b6000613f3d60001984600802613f1f565b1980831691505092915050565b6000613f568383613f2c565b9150826002028217905092915050565b613f6f82612ecc565b67ffffffffffffffff811115613f8857613f876128a3565b5b613f928254613a7c565b613f9d828285613ed9565b600060209050601f831160018114613fd05760008415613fbe578287015190505b613fc88582613f4a565b865550614030565b601f198416613fde86613dba565b60005b8281101561400657848901518255600182019150602085019450602081019050613fe1565b86831015614023578489015161401f601f891682613f2c565b8355505b6001600288020188555050505b505050505050565b600060808201905081810360008301526140528187613070565b905081810360208301526140668186613070565b905061407560408301856130a9565b61408260608301846130c2565b95945050505050565b7f496e76616c6964207369676e6174757265206c656e6774680000000000000000600082015250565b60006140c160188361305f565b91506140cc8261408b565b602082019050919050565b600060208201905081810360008301526140f0816140b4565b9050919050565b7f496e76616c696420494400000000000000000000000000000000000000000000600082015250565b600061412d600a8361305f565b9150614138826140f7565b602082019050919050565b6000602082019050818103600083015261415c81614120565b9050919050565b7f496e76616c6964206e616d650000000000000000000000000000000000000000600082015250565b6000614199600c8361305f565b91506141a482614163565b602082019050919050565b600060208201905081810360008301526141c88161418c565b9050919050565b7f4361736520646f6573206e6f7420657869737400000000000000000000000000600082015250565b600061420560138361305f565b9150614210826141cf565b602082019050919050565b60006020820190508181036000830152614234816141f8565b9050919050565b7f496e76616c696420495046532068617368000000000000000000000000000000600082015250565b600061427160118361305f565b915061427c8261423b565b602082019050919050565b600060208201905081810360008301526142a081614264565b9050919050565b7f496e76616c6964205348412d3235362068617368000000000000000000000000600082015250565b60006142dd60148361305f565b91506142e8826142a7565b602082019050919050565b6000602082019050818103600083015261430c816142d0565b9050919050565b7f496e76616c6964204d494d452074797065000000000000000000000000000000600082015250565b600061434960118361305f565b915061435482614313565b602082019050919050565b600060208201905081810360008301526143788161433c565b9050919050565b7f496e76616c6964207369676e6174757265000000000000000000000000000000600082015250565b60006143b560118361305f565b91506143c08261437f565b602082019050919050565b600060208201905081810360008301526143e4816143a8565b9050919050565b600060808201905081810360008301526144058187613070565b905081810360208301526144198186613070565b905061442860408301856130d1565b61443560608301846130c2565b95945050505050565b600061444a8286613880565b91506144568285613880565b915061446282846138e2565b601482019150819050949350505050565b7f4e6f2066696c657320696e206261746368000000000000000000000000000000600082015250565b60006144a960118361305f565b91506144b482614473565b602082019050919050565b600060208201905081810360008301526144d88161449c565b9050919050565b7f496e76616c6964206261746368207369676e6174757265000000000000000000600082015250565b600061451560178361305f565b9150614520826144df565b602082019050919050565b6000602082019050818103600083015261454481614508565b905091905056fea2646970667358221220d75de843dc9dbf199f4ba75070c5c02d0212c1b2ad187cedeb192be6223118b664736f6c634300081c0033",
  "linkReferences": {},
  "deployedLinkReferences": {}
}