{
  "_format": "hh-sol-artifact-1",
  "contractName": "EvidenceStorage",
  "sourceName": "contracts/EvidenceStorage.sol",
  "abi": [
    {
      "anonymous": false,
      "inputs": [
        {
          "indexed": true,
          "internalType": "string",
          "name": "caseId",
          "type": "string"
        },
        {
          "indexed": false,
          "internalType": "string",
          "name": "description",
          "type": "string"
        },
        {
          "indexed": false,
          "internalType": "address",
          "name": "owner",
          "type": "address"
        }
      ],
      "name": "CaseCreated",
      "type": "event"
    },
    {
      "anonymous": false,
      "inputs": [
        {
          "indexed": false,
          "internalType": "string",
          "name": "message",
          "type": "string"
        },
        {
          "indexed": false,
          "internalType": "string",
          "name": "value",
          "type": "string"
        }
      ],
      "name": "DebugLog",
      "type": "event"
    },
    {
      "anonymous": false,
      "inputs": [
        {
          "indexed": true,
          "internalType": "string",
          "name": "caseId",
          "type": "string"
        },
        {
          "indexed": true,
          "internalType": "string",
          "name": "parentId",
          "type": "string"
        },
        {
          "indexed": false,
          "internalType": "string",
          "name": "id",
          "type": "string"
        },
        {
          "indexed": false,
          "internalType": "string",
          "name": "name",
          "type": "string"
        },
        {
          "indexed": false,
          "internalType": "bool",
          "name": "isFolder",
          "type": "bool"
        }
      ],
      "name": "EvidenceStored",
      "type": "event"
    },
    {
      "anonymous": false,
      "inputs": [
        {
          "indexed": true,
          "internalType": "string",
          "name": "caseId",
          "type": "string"
        },
        {
          "indexed": true,
          "internalType": "address",
          "name": "user",
          "type": "address"
        },
        {
          "indexed": false,
          "internalType": "enum EvidenceStorage.Role",
          "name": "role",
          "type": "uint8"
        }
      ],
      "name": "RoleAssigned",
      "type": "event"
    },
    {
      "inputs": [
        {
          "internalType": "string",
          "name": "caseId",
          "type": "string"
        },
        {
          "internalType": "address",
          "name": "user",
          "type": "address"
        },
        {
          "internalType": "enum EvidenceStorage.Role",
          "name": "role",
          "type": "uint8"
        }
      ],
      "name": "assignRole",
      "outputs": [],
      "stateMutability": "nonpayable",
      "type": "function"
    },
    {
      "inputs": [
        {
          "internalType": "string",
          "name": "",
          "type": "string"
        },
        {
          "internalType": "uint256",
          "name": "",
          "type": "uint256"
        }
      ],
      "name": "caseEvidence",
      "outputs": [
        {
          "internalType": "string",
          "name": "",
          "type": "string"
        }
      ],
      "stateMutability": "view",
      "type": "function"
    },
    {
      "inputs": [
        {
          "internalType": "string",
          "name": "",
          "type": "string"
        }
      ],
      "name": "cases",
      "outputs": [
        {
          "internalType": "string",
          "name": "caseId",
          "type": "string"
        },
        {
          "internalType": "string",
          "name": "description",
          "type": "string"
        },
        {
          "internalType": "uint256",
          "name": "createdAt",
          "type": "uint256"
        },
        {
          "internalType": "address",
          "name": "owner",
          "type": "address"
        }
      ],
      "stateMutability": "view",
      "type": "function"
    },
    {
      "inputs": [
        {
          "internalType": "string",
          "name": "caseId",
          "type": "string"
        },
        {
          "internalType": "string",
          "name": "description",
          "type": "string"
        }
      ],
      "name": "createCase",
      "outputs": [],
      "stateMutability": "nonpayable",
      "type": "function"
    },
    {
      "inputs": [
        {
          "internalType": "string",
          "name": "",
          "type": "string"
        }
      ],
      "name": "evidenceRecords",
      "outputs": [
        {
          "internalType": "string",
          "name": "id",
          "type": "string"
        },
        {
          "internalType": "string",
          "name": "name",
          "type": "string"
        },
        {
          "internalType": "string",
          "name": "ipfsHash",
          "type": "string"
        },
        {
          "internalType": "string",
          "name": "sha256Hash",
          "type": "string"
        },
        {
          "internalType": "string",
          "name": "mimeType",
          "type": "string"
        },
        {
          "internalType": "address",
          "name": "uploader",
          "type": "address"
        },
        {
          "internalType": "uint256",
          "name": "timestamp",
          "type": "uint256"
        },
        {
          "internalType": "bool",
          "name": "isFolder",
          "type": "bool"
        },
        {
          "internalType": "string",
          "name": "parentId",
          "type": "string"
        }
      ],
      "stateMutability": "view",
      "type": "function"
    },
    {
      "inputs": [
        {
          "internalType": "string",
          "name": "",
          "type": "string"
        },
        {
          "internalType": "uint256",
          "name": "",
          "type": "uint256"
        }
      ],
      "name": "folderContents",
      "outputs": [
        {
          "internalType": "string",
          "name": "",
          "type": "string"
        }
      ],
      "stateMutability": "view",
      "type": "function"
    },
    {
      "inputs": [
        {
          "components": [
            {
              "internalType": "string",
              "name": "caseId",
              "type": "string"
            },
            {
              "internalType": "string",
              "name": "id",
              "type": "string"
            },
            {
              "internalType": "string",
              "name": "name",
              "type": "string"
            },
            {
              "internalType": "string",
              "name": "ipfsHash",
              "type": "string"
            },
            {
              "internalType": "string",
              "name": "sha256Hash",
              "type": "string"
            },
            {
              "internalType": "string",
              "name": "mimeType",
              "type": "string"
            },
            {
              "internalType": "address",
              "name": "uploader",
              "type": "address"
            },
            {
              "internalType": "bool",
              "name": "isFolder",
              "type": "bool"
            },
            {
              "internalType": "string",
              "name": "parentId",
              "type": "string"
            }
          ],
          "internalType": "struct EvidenceStorage.EvidenceData[]",
          "name": "files",
          "type": "tuple[]"
        },
        {
          "internalType": "string",
          "name": "batchId",
          "type": "string"
        },
        {
          "internalType": "address",
          "name": "uploader",
          "type": "address"
        }
      ],
      "name": "getBatchDataHash",
      "outputs": [
        {
          "internalType": "bytes32",
          "name": "",
          "type": "bytes32"
        }
      ],
      "stateMutability": "pure",
      "type": "function"
    },
    {
      "inputs": [
        {
          "internalType": "string",
          "name": "caseId",
          "type": "string"
        }
      ],
      "name": "getCaseRootContents",
      "outputs": [
        {
          "internalType": "string[]",
          "name": "",
          "type": "string[]"
        }
      ],
      "stateMutability": "view",
      "type": "function"
    },
    {
      "inputs": [
        {
          "components": [
            {
              "internalType": "string",
              "name": "caseId",
              "type": "string"
            },
            {
              "internalType": "string",
              "name": "id",
              "type": "string"
            },
            {
              "internalType": "string",
              "name": "name",
              "type": "string"
            },
            {
              "internalType": "string",
              "name": "ipfsHash",
              "type": "string"
            },
            {
              "internalType": "string",
              "name": "sha256Hash",
              "type": "string"
            },
            {
              "internalType": "string",
              "name": "mimeType",
              "type": "string"
            },
            {
              "internalType": "address",
              "name": "uploader",
              "type": "address"
            },
            {
              "internalType": "bool",
              "name": "isFolder",
              "type": "bool"
            },
            {
              "internalType": "string",
              "name": "parentId",
              "type": "string"
            }
          ],
          "internalType": "struct EvidenceStorage.EvidenceData",
          "name": "evidenceData",
          "type": "tuple"
        }
      ],
      "name": "getDataHash",
      "outputs": [
        {
          "internalType": "bytes32",
          "name": "",
          "type": "bytes32"
        }
      ],
      "stateMutability": "pure",
      "type": "function"
    },
    {
      "inputs": [
        {
          "internalType": "string",
          "name": "folderId",
          "type": "string"
        }
      ],
      "name": "getFolderContents",
      "outputs": [
        {
          "internalType": "string[]",
          "name": "",
          "type": "string[]"
        }
      ],
      "stateMutability": "view",
      "type": "function"
    },
    {
      "inputs": [
        {
          "internalType": "string",
          "name": "caseId",
          "type": "string"
        }
      ],
      "name": "getFullCaseTree",
      "outputs": [
        {
          "internalType": "string[]",
          "name": "",
          "type": "string[]"
        }
      ],
      "stateMutability": "view",
      "type": "function"
    },
    {
      "inputs": [
        {
          "internalType": "string",
          "name": "username",
          "type": "string"
        },
        {
          "internalType": "string",
          "name": "password",
          "type": "string"
        },
        {
          "internalType": "address",
          "name": "uploader",
          "type": "address"
        }
      ],
      "name": "getLoginHash",
      "outputs": [
        {
          "internalType": "bytes32",
          "name": "",
          "type": "bytes32"
        }
      ],
      "stateMutability": "pure",
      "type": "function"
    },
    {
      "inputs": [
        {
          "internalType": "bytes32",
          "name": "message",
          "type": "bytes32"
        },
        {
          "internalType": "bytes",
          "name": "signature",
          "type": "bytes"
        }
      ],
      "name": "recoverSigner",
      "outputs": [
        {
          "internalType": "address",
          "name": "",
          "type": "address"
        }
      ],
      "stateMutability": "pure",
      "type": "function"
    },
    {
      "inputs": [
        {
          "internalType": "bytes",
          "name": "sig",
          "type": "bytes"
        }
      ],
      "name": "splitSignature",
      "outputs": [
        {
          "internalType": "bytes32",
          "name": "r",
          "type": "bytes32"
        },
        {
          "internalType": "bytes32",
          "name": "s",
          "type": "bytes32"
        },
        {
          "internalType": "uint8",
          "name": "v",
          "type": "uint8"
        }
      ],
      "stateMutability": "pure",
      "type": "function"
    },
    {
      "inputs": [
        {
          "components": [
            {
              "internalType": "string",
              "name": "caseId",
              "type": "string"
            },
            {
              "internalType": "string",
              "name": "id",
              "type": "string"
            },
            {
              "internalType": "string",
              "name": "name",
              "type": "string"
            },
            {
              "internalType": "string",
              "name": "ipfsHash",
              "type": "string"
            },
            {
              "internalType": "string",
              "name": "sha256Hash",
              "type": "string"
            },
            {
              "internalType": "string",
              "name": "mimeType",
              "type": "string"
            },
            {
              "internalType": "address",
              "name": "uploader",
              "type": "address"
            },
            {
              "internalType": "bool",
              "name": "isFolder",
              "type": "bool"
            },
            {
              "internalType": "string",
              "name": "parentId",
              "type": "string"
            }
          ],
          "internalType": "struct EvidenceStorage.EvidenceData[]",
          "name": "files",
          "type": "tuple[]"
        },
        {
          "internalType": "string",
          "name": "batchId",
          "type": "string"
        },
        {
          "internalType": "address",
          "name": "uploader",
          "type": "address"
        },
        {
          "internalType": "bytes",
          "name": "signature",
          "type": "bytes"
        }
      ],
      "name": "storeBatchEvidence",
      "outputs": [],
      "stateMutability": "nonpayable",
      "type": "function"
    },
    {
      "inputs": [
        {
          "components": [
            {
              "internalType": "string",
              "name": "caseId",
              "type": "string"
            },
            {
              "internalType": "string",
              "name": "id",
              "type": "string"
            },
            {
              "internalType": "string",
              "name": "name",
              "type": "string"
            },
            {
              "internalType": "string",
              "name": "ipfsHash",
              "type": "string"
            },
            {
              "internalType": "string",
              "name": "sha256Hash",
              "type": "string"
            },
            {
              "internalType": "string",
              "name": "mimeType",
              "type": "string"
            },
            {
              "internalType": "address",
              "name": "uploader",
              "type": "address"
            },
            {
              "internalType": "bool",
              "name": "isFolder",
              "type": "bool"
            },
            {
              "internalType": "string",
              "name": "parentId",
              "type": "string"
            }
          ],
          "internalType": "struct EvidenceStorage.EvidenceData",
          "name": "evidenceData",
          "type": "tuple"
        },
        {
          "internalType": "bytes",
          "name": "signature",
          "type": "bytes"
        }
      ],
      "name": "storeEvidence",
      "outputs": [],
      "stateMutability": "nonpayable",
      "type": "function"
    },
    {
      "inputs": [
        {
          "internalType": "address",
          "name": "",
          "type": "address"
        },
        {
          "internalType": "string",
          "name": "",
          "type": "string"
        }
      ],
      "name": "userRoles",
      "outputs": [
        {
          "internalType": "enum EvidenceStorage.Role",
          "name": "",
          "type": "uint8"
        }
      ],
      "stateMutability": "view",
      "type": "function"
    }
  ],
  "bytecode": "0x6080604052348015600f57600080fd5b506147ba8061001f6000396000f3fe608060405234801561001057600080fd5b506004361061010b5760003560e01c80637fd730c7116100a2578063be76367b11610071578063be76367b1461031e578063c54697c31461034e578063df9658291461037e578063f7a78916146103b1578063fea3e675146103cd5761010b565b80637fd730c71461027057806397aba7f9146102a0578063a7bb5803146102d0578063abb8eb27146103025761010b565b806339ed370e116100de57806339ed370e146101bc57806349b73f69146101f4578063706a4ef414610224578063795a051b146102405761010b565b80630e0cf3c2146101105780630e1db48d146101405780632a648e6414610170578063327be6c6146101a0575b600080fd5b61012a60048036038101906101259190612b62565b6103fd565b6040516101379190612bc4565b60405180910390f35b61015a60048036038101906101559190612bdf565b610462565b6040516101679190612cb2565b60405180910390f35b61018a60048036038101906101859190612ccd565b6104a7565b6040516101979190612e57565b60405180910390f35b6101ba60048036038101906101b59190612e9e565b61059e565b005b6101d660048036038101906101d19190612ccd565b61075b565b6040516101eb99989796959493929190612f8e565b60405180910390f35b61020e60048036038101906102099190612ccd565b610b1c565b60405161021b9190612e57565b60405180910390f35b61023e60048036038101906102399190613045565b610e47565b005b61025a60048036038101906102559190612ccd565b611062565b6040516102679190612e57565b60405180910390f35b61028a600480360381019061028591906130e9565b611159565b6040516102979190613145565b60405180910390f35b6102ba60048036038101906102b59190613234565b611228565b6040516102c79190613290565b60405180910390f35b6102ea60048036038101906102e591906132ab565b6112c3565b6040516102f993929190613310565b60405180910390f35b61031c60048036038101906103179190613347565b61132b565b005b610338600480360381019061033391906133bf565b611bef565b6040516103459190612bc4565b60405180910390f35b610368600480360381019061036391906130e9565b611c25565b6040516103759190613145565b60405180910390f35b61039860048036038101906103939190612ccd565b611cf4565b6040516103a8949392919061344a565b60405180910390f35b6103cb60048036038101906103c69190613583565b611e6a565b005b6103e760048036038101906103e2919061363e565b6123d5565b6040516103f49190612bc4565b60405180910390f35b6000816000015182602001518360400151846060015185608001518660a001518760c001518860e0015189610100015160405160200161044599989796959493929190613795565b604051602081830303815290604052805190602001209050919050565b6004602052816000526040600020818051602081018201805184825260208301602085012081835280955050505050506000915091509054906101000a900460ff1681565b60606003826040516104b9919061381c565b9081526020016040518091039020805480602002602001604051908101604052809291908181526020016000905b8282101561059357838290600052602060002001805461050690613862565b80601f016020809104026020016040519081016040528092919081815260200182805461053290613862565b801561057f5780601f106105545761010080835404028352916020019161057f565b820191906000526020600020905b81548152906001019060200180831161056257829003601f168201915b5050505050815260200190600101906104e7565b505050509050919050565b82600160038111156105b3576105b2612c3b565b5b600460003373ffffffffffffffffffffffffffffffffffffffff1673ffffffffffffffffffffffffffffffffffffffff16815260200190815260200160002082604051610600919061381c565b908152602001604051809103902060009054906101000a900460ff16600381111561062e5761062d612c3b565b5b1461066e576040517f08c379a0000000000000000000000000000000000000000000000000000000008152600401610665906138df565b60405180910390fd5b81600460008573ffffffffffffffffffffffffffffffffffffffff1673ffffffffffffffffffffffffffffffffffffffff168152602001908152602001600020856040516106bc919061381c565b908152602001604051809103902060006101000a81548160ff021916908360038111156106ec576106eb612c3b565b5b02179055508273ffffffffffffffffffffffffffffffffffffffff1684604051610716919061381c565b60405180910390207f840001fdf1f35980eb6dd48ae96029ae5fc90f3baacb74fc21f6da4d56437dc48460405161074d9190612cb2565b60405180910390a350505050565b60018180516020810182018051848252602083016020850120818352809550505050505060009150905080600001805461079490613862565b80601f01602080910402602001604051908101604052809291908181526020018280546107c090613862565b801561080d5780601f106107e25761010080835404028352916020019161080d565b820191906000526020600020905b8154815290600101906020018083116107f057829003601f168201915b50505050509080600101805461082290613862565b80601f016020809104026020016040519081016040528092919081815260200182805461084e90613862565b801561089b5780601f106108705761010080835404028352916020019161089b565b820191906000526020600020905b81548152906001019060200180831161087e57829003601f168201915b5050505050908060020180546108b090613862565b80601f01602080910402602001604051908101604052809291908181526020018280546108dc90613862565b80156109295780601f106108fe57610100808354040283529160200191610929565b820191906000526020600020905b81548152906001019060200180831161090c57829003601f168201915b50505050509080600301805461093e90613862565b80601f016020809104026020016040519081016040528092919081815260200182805461096a90613862565b80156109b75780601f1061098c576101008083540402835291602001916109b7565b820191906000526020600020905b81548152906001019060200180831161099a57829003601f168201915b5050505050908060040180546109cc90613862565b80601f01602080910402602001604051908101604052809291908181526020018280546109f890613862565b8015610a455780601f10610a1a57610100808354040283529160200191610a45565b820191906000526020600020905b815481529060010190602001808311610a2857829003601f168201915b5050505050908060050160009054906101000a900473ffffffffffffffffffffffffffffffffffffffff16908060060154908060070160009054906101000a900460ff1690806008018054610a9990613862565b80601f0160208091040260200160405190810160405280929190818152602001828054610ac590613862565b8015610b125780601f10610ae757610100808354040283529160200191610b12565b820191906000526020600020905b815481529060010190602001808311610af557829003601f168201915b5050505050905089565b60606000600383604051610b30919061381c565b9081526020016040518091039020805480602002602001604051908101604052809291908181526020016000905b82821015610c0a578382906000526020600020018054610b7d90613862565b80601f0160208091040260200160405190810160405280929190818152602001828054610ba990613862565b8015610bf65780601f10610bcb57610100808354040283529160200191610bf6565b820191906000526020600020905b815481529060010190602001808311610bd957829003601f168201915b505050505081526020019060010190610b5e565b50505050905060008151905060005b8251811015610cae576001838281518110610c3757610c366138ff565b5b6020026020010151604051610c4c919061381c565b908152602001604051809103902060070160009054906101000a900460ff1615610ca157610c93838281518110610c8657610c856138ff565b5b602002602001015161240c565b82610c9e919061395d565b91505b8080600101915050610c19565b5060008167ffffffffffffffff811115610ccb57610cca6127ee565b5b604051908082528060200260200182016040528015610cfe57816020015b6060815260200190600190039081610ce95790505b5090506000805b8451811015610e3a57848181518110610d2157610d206138ff565b5b6020026020010151838381518110610d3c57610d3b6138ff565b5b60200260200101819052508180610d5290613991565b9250506001858281518110610d6a57610d696138ff565b5b6020026020010151604051610d7f919061381c565b908152602001604051809103902060070160009054906101000a900460ff1615610e2d576000610dc8868381518110610dbb57610dba6138ff565b5b6020026020010151612584565b905060005b8151811015610e2a57818181518110610de957610de86138ff565b5b6020026020010151858581518110610e0457610e036138ff565b5b60200260200101819052508380610e1a90613991565b9450508080600101915050610dcd565b50505b8080600101915050610d05565b5081945050505050919050565b60008083604051610e58919061381c565b90815260200160405180910390206000018054610e7490613862565b905014610eb6576040517f08c379a0000000000000000000000000000000000000000000000000000000008152600401610ead90613a25565b60405180910390fd5b60405180608001604052808381526020018281526020014281526020013373ffffffffffffffffffffffffffffffffffffffff16815250600083604051610efd919061381c565b90815260200160405180910390206000820151816000019081610f209190613bf1565b506020820151816001019081610f369190613bf1565b506040820151816002015560608201518160030160006101000a81548173ffffffffffffffffffffffffffffffffffffffff021916908373ffffffffffffffffffffffffffffffffffffffff1602179055509050506001600460003373ffffffffffffffffffffffffffffffffffffffff1673ffffffffffffffffffffffffffffffffffffffff16815260200190815260200160002083604051610fda919061381c565b908152602001604051809103902060006101000a81548160ff0219169083600381111561100a57611009612c3b565b5b02179055508160405161101d919061381c565b60405180910390207f4e34de79d280cd9497dda47ec7e91d7d4a0eed0588479d8ec91fd4cf3dbb1f528233604051611056929190613cc3565b60405180910390a25050565b6060600282604051611074919061381c565b9081526020016040518091039020805480602002602001604051908101604052809291908181526020016000905b8282101561114e5783829060005260206000200180546110c190613862565b80601f01602080910402602001604051908101604052809291908181526020018280546110ed90613862565b801561113a5780601f1061110f5761010080835404028352916020019161113a565b820191906000526020600020905b81548152906001019060200180831161111d57829003601f168201915b5050505050815260200190600101906110a2565b505050509050919050565b600382805160208101820180518482526020830160208501208183528095505050505050818154811061118b57600080fd5b906000526020600020016000915091505080546111a790613862565b80601f01602080910402602001604051908101604052809291908181526020018280546111d390613862565b80156112205780601f106111f557610100808354040283529160200191611220565b820191906000526020600020905b81548152906001019060200180831161120357829003601f168201915b505050505081565b6000808360405160200161123c9190613d60565b6040516020818303038152906040528051906020012090506000806000611262866112c3565b9250925092506001848285856040516000815260200160405260405161128b9493929190613d86565b6020604051602081039080840390855afa1580156112ad573d6000803e3d6000fd5b5050506020604051035194505050505092915050565b6000806000604184511461130c576040517f08c379a000000000000000000000000000000000000000000000000000000000815260040161130390613e17565b60405180910390fd5b6020840151925060408401519150606084015160001a90509193909250565b81600001516001600381111561134457611343612c3b565b5b600460003373ffffffffffffffffffffffffffffffffffffffff1673ffffffffffffffffffffffffffffffffffffffff16815260200190815260200160002082604051611391919061381c565b908152602001604051809103902060009054906101000a900460ff1660038111156113bf576113be612c3b565b5b14806114575750600260038111156113da576113d9612c3b565b5b600460003373ffffffffffffffffffffffffffffffffffffffff1673ffffffffffffffffffffffffffffffffffffffff16815260200190815260200160002082604051611427919061381c565b908152602001604051809103902060009054906101000a900460ff16600381111561145557611454612c3b565b5b145b611496576040517f08c379a000000000000000000000000000000000000000000000000000000000815260040161148d906138df565b60405180910390fd5b7fda35011b2ef2956689f7e063cd6e02cd622181442af1422729316c724bb8a78f83600001516040516114c99190613e83565b60405180910390a1600083602001515111611519576040517f08c379a000000000000000000000000000000000000000000000000000000000815260040161151090613f04565b60405180910390fd5b7fda35011b2ef2956689f7e063cd6e02cd622181442af1422729316c724bb8a78f836020015160405161154c9190613f70565b60405180910390a160008360400151511161159c576040517f08c379a000000000000000000000000000000000000000000000000000000000815260040161159390613ff1565b60405180910390fd5b7fda35011b2ef2956689f7e063cd6e02cd622181442af1422729316c724bb8a78f83604001516040516115cf919061405d565b60405180910390a160008084600001516040516115ec919061381c565b9081526020016040518091039020600001805461160890613862565b90501161164a576040517f08c379a0000000000000000000000000000000000000000000000000000000008152600401611641906140de565b60405180910390fd5b7fda35011b2ef2956689f7e063cd6e02cd622181442af1422729316c724bb8a78f836000015160405161167d919061414a565b60405180910390a18260e00151611818576000836060015151116116d6576040517f08c379a00000000000000000000000000000000000000000000000000000000081526004016116cd906141cb565b60405180910390fd5b7fda35011b2ef2956689f7e063cd6e02cd622181442af1422729316c724bb8a78f83606001516040516117099190614237565b60405180910390a1600083608001515111611759576040517f08c379a0000000000000000000000000000000000000000000000000000000008152600401611750906142b8565b60405180910390fd5b7fda35011b2ef2956689f7e063cd6e02cd622181442af1422729316c724bb8a78f836080015160405161178c9190614324565b60405180910390a160008360a0015151116117dc576040517f08c379a00000000000000000000000000000000000000000000000000000000081526004016117d3906143a5565b60405180910390fd5b7fda35011b2ef2956689f7e063cd6e02cd622181442af1422729316c724bb8a78f8360a0015160405161180f9190614411565b60405180910390a15b6000611823846103fd565b905060006118318285611228565b90508460c0015173ffffffffffffffffffffffffffffffffffffffff168173ffffffffffffffffffffffffffffffffffffffff16146118a5576040517f08c379a000000000000000000000000000000000000000000000000000000000815260040161189c90614492565b60405180910390fd5b7fda35011b2ef2956689f7e063cd6e02cd622181442af1422729316c724bb8a78f6040516118d290614524565b60405180910390a1604051806101200160405280866020015181526020018660400151815260200186606001518152602001866080015181526020018660a0015181526020018273ffffffffffffffffffffffffffffffffffffffff1681526020014281526020018660e001511515815260200186610100015181525060018660200151604051611963919061381c565b908152602001604051809103902060008201518160000190816119869190613bf1565b50602082015181600101908161199c9190613bf1565b5060408201518160020190816119b29190613bf1565b5060608201518160030190816119c89190613bf1565b5060808201518160040190816119de9190613bf1565b5060a08201518160050160006101000a81548173ffffffffffffffffffffffffffffffffffffffff021916908373ffffffffffffffffffffffffffffffffffffffff16021790555060c0820151816006015560e08201518160070160006101000a81548160ff021916908315150217905550610100820151816008019081611a669190613bf1565b509050507fda35011b2ef2956689f7e063cd6e02cd622181442af1422729316c724bb8a78f8560200151604051611a9d91906145a3565b60405180910390a160008561010001515103611b115760038560000151604051611ac7919061381c565b90815260200160405180910390208560200151908060018154018082558091505060019003906000526020600020016000909190919091509081611b0b9190613bf1565b50611b6c565b6002856101000151604051611b26919061381c565b90815260200160405180910390208560200151908060018154018082558091505060019003906000526020600020016000909190919091509081611b6a9190613bf1565b505b846101000151604051611b7f919061381c565b60405180910390208560000151604051611b99919061381c565b60405180910390207f82f4a212f5502ed9c8b196e9b2a5eb3beef6e4ca3c01db50e6e055a1bdc54140876020015188604001518960e00151604051611be0939291906145d8565b60405180910390a35050505050565b6000838383604051602001611c069392919061461d565b6040516020818303038152906040528051906020012090509392505050565b6002828051602081018201805184825260208301602085012081835280955050505050508181548110611c5757600080fd5b90600052602060002001600091509150508054611c7390613862565b80601f0160208091040260200160405190810160405280929190818152602001828054611c9f90613862565b8015611cec5780601f10611cc157610100808354040283529160200191611cec565b820191906000526020600020905b815481529060010190602001808311611ccf57829003601f168201915b505050505081565b600081805160208101820180518482526020830160208501208183528095505050505050600091509050806000018054611d2d90613862565b80601f0160208091040260200160405190810160405280929190818152602001828054611d5990613862565b8015611da65780601f10611d7b57610100808354040283529160200191611da6565b820191906000526020600020905b815481529060010190602001808311611d8957829003601f168201915b505050505090806001018054611dbb90613862565b80601f0160208091040260200160405190810160405280929190818152602001828054611de790613862565b8015611e345780601f10611e0957610100808354040283529160200191611e34565b820191906000526020600020905b815481529060010190602001808311611e1757829003601f168201915b5050505050908060020154908060030160009054906101000a900473ffffffffffffffffffffffffffffffffffffffff16905084565b83600081518110611e7e57611e7d6138ff565b5b60200260200101516000015160016003811115611e9e57611e9d612c3b565b5b600460003373ffffffffffffffffffffffffffffffffffffffff1673ffffffffffffffffffffffffffffffffffffffff16815260200190815260200160002082604051611eeb919061381c565b908152602001604051809103902060009054906101000a900460ff166003811115611f1957611f18612c3b565b5b1480611fb1575060026003811115611f3457611f33612c3b565b5b600460003373ffffffffffffffffffffffffffffffffffffffff1673ffffffffffffffffffffffffffffffffffffffff16815260200190815260200160002082604051611f81919061381c565b908152602001604051809103902060009054906101000a900460ff166003811115611faf57611fae612c3b565b5b145b611ff0576040517f08c379a0000000000000000000000000000000000000000000000000000000008152600401611fe7906138df565b60405180910390fd5b6000855111612034576040517f08c379a000000000000000000000000000000000000000000000000000000000815260040161202b9061469e565b60405180910390fd5b60006120418686866123d5565b9050600061204f8285611228565b90508473ffffffffffffffffffffffffffffffffffffffff168173ffffffffffffffffffffffffffffffffffffffff16146120bf576040517f08c379a00000000000000000000000000000000000000000000000000000000081526004016120b69061470a565b60405180910390fd5b60005b87518110156123cb5760008882815181106120e0576120df6138ff565b5b60200260200101519050604051806101200160405280826020015181526020018260400151815260200182606001518152602001826080015181526020018260a0015181526020018473ffffffffffffffffffffffffffffffffffffffff1681526020014281526020018260e001511515815260200182610100015181525060018260200151604051612173919061381c565b908152602001604051809103902060008201518160000190816121969190613bf1565b5060208201518160010190816121ac9190613bf1565b5060408201518160020190816121c29190613bf1565b5060608201518160030190816121d89190613bf1565b5060808201518160040190816121ee9190613bf1565b5060a08201518160050160006101000a81548173ffffffffffffffffffffffffffffffffffffffff021916908373ffffffffffffffffffffffffffffffffffffffff16021790555060c0820151816006015560e08201518160070160006101000a81548160ff0219169083151502179055506101008201518160080190816122769190613bf1565b50905050600081610100015151036122e6576003816000015160405161229c919061381c565b908152602001604051809103902081602001519080600181540180825580915050600190039060005260206000200160009091909190915090816122e09190613bf1565b50612341565b60028161010001516040516122fb919061381c565b9081526020016040518091039020816020015190806001815401808255809150506001900390600052602060002001600090919091909150908161233f9190613bf1565b505b806101000151604051612354919061381c565b6040518091039020816000015160405161236e919061381c565b60405180910390207f82f4a212f5502ed9c8b196e9b2a5eb3beef6e4ca3c01db50e6e055a1bdc54140836020015184604001518560e001516040516123b5939291906145d8565b60405180910390a35080806001019150506120c2565b5050505050505050565b6000828285516040516020016123ed9392919061474b565b6040516020818303038152906040528051906020012090509392505050565b600060028260405161241e919061381c565b908152602001604051809103902080549050905060005b600283604051612445919061381c565b90815260200160405180910390208054905081101561257e576000600284604051612470919061381c565b908152602001604051809103902082815481106124905761248f6138ff565b5b9060005260206000200180546124a590613862565b80601f01602080910402602001604051908101604052809291908181526020018280546124d190613862565b801561251e5780601f106124f35761010080835404028352916020019161251e565b820191906000526020600020905b81548152906001019060200180831161250157829003601f168201915b50505050509050600181604051612535919061381c565b908152602001604051809103902060070160009054906101000a900460ff1615612570576125628161240c565b8361256d919061395d565b92505b508080600101915050612435565b50919050565b606060006125918361240c565b905060008167ffffffffffffffff8111156125af576125ae6127ee565b5b6040519080825280602002602001820160405280156125e257816020015b60608152602001906001900390816125cd5790505b5090506000805b6002866040516125f9919061381c565b9081526020016040518091039020805490508110156127b8576000600287604051612624919061381c565b90815260200160405180910390208281548110612644576126436138ff565b5b90600052602060002001805461265990613862565b80601f016020809104026020016040519081016040528092919081815260200182805461268590613862565b80156126d25780601f106126a7576101008083540402835291602001916126d2565b820191906000526020600020905b8154815290600101906020018083116126b557829003601f168201915b50505050509050808484815181106126ed576126ec6138ff565b5b6020026020010181905250828061270390613991565b935050600181604051612716919061381c565b908152602001604051809103902060070160009054906101000a900460ff16156127aa57600061274582612584565b905060005b81518110156127a757818181518110612766576127656138ff565b5b6020026020010151868681518110612781576127806138ff565b5b6020026020010181905250848061279790613991565b955050808060010191505061274a565b50505b5080806001019150506125e9565b50819350505050919050565b6000604051905090565b600080fd5b600080fd5b600080fd5b6000601f19601f8301169050919050565b7f4e487b7100000000000000000000000000000000000000000000000000000000600052604160045260246000fd5b612826826127dd565b810181811067ffffffffffffffff82111715612845576128446127ee565b5b80604052505050565b60006128586127c4565b9050612864828261281d565b919050565b600080fd5b600080fd5b600080fd5b600067ffffffffffffffff821115612893576128926127ee565b5b61289c826127dd565b9050602081019050919050565b82818337600083830152505050565b60006128cb6128c684612878565b61284e565b9050828152602081018484840111156128e7576128e6612873565b5b6128f28482856128a9565b509392505050565b600082601f83011261290f5761290e61286e565b5b813561291f8482602086016128b8565b91505092915050565b600073ffffffffffffffffffffffffffffffffffffffff82169050919050565b600061295382612928565b9050919050565b61296381612948565b811461296e57600080fd5b50565b6000813590506129808161295a565b92915050565b60008115159050919050565b61299b81612986565b81146129a657600080fd5b50565b6000813590506129b881612992565b92915050565b600061012082840312156129d5576129d46127d8565b5b6129e061012061284e565b9050600082013567ffffffffffffffff811115612a00576129ff612869565b5b612a0c848285016128fa565b600083015250602082013567ffffffffffffffff811115612a3057612a2f612869565b5b612a3c848285016128fa565b602083015250604082013567ffffffffffffffff811115612a6057612a5f612869565b5b612a6c848285016128fa565b604083015250606082013567ffffffffffffffff811115612a9057612a8f612869565b5b612a9c848285016128fa565b606083015250608082013567ffffffffffffffff811115612ac057612abf612869565b5b612acc848285016128fa565b60808301525060a082013567ffffffffffffffff811115612af057612aef612869565b5b612afc848285016128fa565b60a08301525060c0612b1084828501612971565b60c08301525060e0612b24848285016129a9565b60e08301525061010082013567ffffffffffffffff811115612b4957612b48612869565b5b612b55848285016128fa565b6101008301525092915050565b600060208284031215612b7857612b776127ce565b5b600082013567ffffffffffffffff811115612b9657612b956127d3565b5b612ba2848285016129be565b91505092915050565b6000819050919050565b612bbe81612bab565b82525050565b6000602082019050612bd96000830184612bb5565b92915050565b60008060408385031215612bf657612bf56127ce565b5b6000612c0485828601612971565b925050602083013567ffffffffffffffff811115612c2557612c246127d3565b5b612c31858286016128fa565b9150509250929050565b7f4e487b7100000000000000000000000000000000000000000000000000000000600052602160045260246000fd5b60048110612c7b57612c7a612c3b565b5b50565b6000819050612c8c82612c6a565b919050565b6000612c9c82612c7e565b9050919050565b612cac81612c91565b82525050565b6000602082019050612cc76000830184612ca3565b92915050565b600060208284031215612ce357612ce26127ce565b5b600082013567ffffffffffffffff811115612d0157612d006127d3565b5b612d0d848285016128fa565b91505092915050565b600081519050919050565b600082825260208201905092915050565b6000819050602082019050919050565b600081519050919050565b600082825260208201905092915050565b60005b83811015612d7c578082015181840152602081019050612d61565b60008484015250505050565b6000612d9382612d42565b612d9d8185612d4d565b9350612dad818560208601612d5e565b612db6816127dd565b840191505092915050565b6000612dcd8383612d88565b905092915050565b6000602082019050919050565b6000612ded82612d16565b612df78185612d21565b935083602082028501612e0985612d32565b8060005b85811015612e455784840389528151612e268582612dc1565b9450612e3183612dd5565b925060208a01995050600181019050612e0d565b50829750879550505050505092915050565b60006020820190508181036000830152612e718184612de2565b905092915050565b60048110612e8657600080fd5b50565b600081359050612e9881612e79565b92915050565b600080600060608486031215612eb757612eb66127ce565b5b600084013567ffffffffffffffff811115612ed557612ed46127d3565b5b612ee1868287016128fa565b9350506020612ef286828701612971565b9250506040612f0386828701612e89565b9150509250925092565b600082825260208201905092915050565b6000612f2982612d42565b612f338185612f0d565b9350612f43818560208601612d5e565b612f4c816127dd565b840191505092915050565b612f6081612948565b82525050565b6000819050919050565b612f7981612f66565b82525050565b612f8881612986565b82525050565b6000610120820190508181036000830152612fa9818c612f1e565b90508181036020830152612fbd818b612f1e565b90508181036040830152612fd1818a612f1e565b90508181036060830152612fe58189612f1e565b90508181036080830152612ff98188612f1e565b905061300860a0830187612f57565b61301560c0830186612f70565b61302260e0830185612f7f565b8181036101008301526130358184612f1e565b90509a9950505050505050505050565b6000806040838503121561305c5761305b6127ce565b5b600083013567ffffffffffffffff81111561307a576130796127d3565b5b613086858286016128fa565b925050602083013567ffffffffffffffff8111156130a7576130a66127d3565b5b6130b3858286016128fa565b9150509250929050565b6130c681612f66565b81146130d157600080fd5b50565b6000813590506130e3816130bd565b92915050565b60008060408385031215613100576130ff6127ce565b5b600083013567ffffffffffffffff81111561311e5761311d6127d3565b5b61312a858286016128fa565b925050602061313b858286016130d4565b9150509250929050565b6000602082019050818103600083015261315f8184612f1e565b905092915050565b61317081612bab565b811461317b57600080fd5b50565b60008135905061318d81613167565b92915050565b600067ffffffffffffffff8211156131ae576131ad6127ee565b5b6131b7826127dd565b9050602081019050919050565b60006131d76131d284613193565b61284e565b9050828152602081018484840111156131f3576131f2612873565b5b6131fe8482856128a9565b509392505050565b600082601f83011261321b5761321a61286e565b5b813561322b8482602086016131c4565b91505092915050565b6000806040838503121561324b5761324a6127ce565b5b60006132598582860161317e565b925050602083013567ffffffffffffffff81111561327a576132796127d3565b5b61328685828601613206565b9150509250929050565b60006020820190506132a56000830184612f57565b92915050565b6000602082840312156132c1576132c06127ce565b5b600082013567ffffffffffffffff8111156132df576132de6127d3565b5b6132eb84828501613206565b91505092915050565b600060ff82169050919050565b61330a816132f4565b82525050565b60006060820190506133256000830186612bb5565b6133326020830185612bb5565b61333f6040830184613301565b949350505050565b6000806040838503121561335e5761335d6127ce565b5b600083013567ffffffffffffffff81111561337c5761337b6127d3565b5b613388858286016129be565b925050602083013567ffffffffffffffff8111156133a9576133a86127d3565b5b6133b585828601613206565b9150509250929050565b6000806000606084860312156133d8576133d76127ce565b5b600084013567ffffffffffffffff8111156133f6576133f56127d3565b5b613402868287016128fa565b935050602084013567ffffffffffffffff811115613423576134226127d3565b5b61342f868287016128fa565b925050604061344086828701612971565b9150509250925092565b600060808201905081810360008301526134648187612f1e565b905081810360208301526134788186612f1e565b90506134876040830185612f70565b6134946060830184612f57565b95945050505050565b600067ffffffffffffffff8211156134b8576134b76127ee565b5b602082029050602081019050919050565b600080fd5b60006134e16134dc8461349d565b61284e565b90508083825260208201905060208402830185811115613504576135036134c9565b5b835b8181101561354b57803567ffffffffffffffff8111156135295761352861286e565b5b80860161353689826129be565b85526020850194505050602081019050613506565b5050509392505050565b600082601f83011261356a5761356961286e565b5b813561357a8482602086016134ce565b91505092915050565b6000806000806080858703121561359d5761359c6127ce565b5b600085013567ffffffffffffffff8111156135bb576135ba6127d3565b5b6135c787828801613555565b945050602085013567ffffffffffffffff8111156135e8576135e76127d3565b5b6135f4878288016128fa565b935050604061360587828801612971565b925050606085013567ffffffffffffffff811115613626576136256127d3565b5b61363287828801613206565b91505092959194509250565b600080600060608486031215613657576136566127ce565b5b600084013567ffffffffffffffff811115613675576136746127d3565b5b61368186828701613555565b935050602084013567ffffffffffffffff8111156136a2576136a16127d3565b5b6136ae868287016128fa565b92505060406136bf86828701612971565b9150509250925092565b600081905092915050565b60006136df82612d42565b6136e981856136c9565b93506136f9818560208601612d5e565b80840191505092915050565b60008160601b9050919050565b600061371d82613705565b9050919050565b600061372f82613712565b9050919050565b61374761374282612948565b613724565b82525050565b60008160f81b9050919050565b60006137658261374d565b9050919050565b60006137778261375a565b9050919050565b61378f61378a82612986565b61376c565b82525050565b60006137a1828c6136d4565b91506137ad828b6136d4565b91506137b9828a6136d4565b91506137c582896136d4565b91506137d182886136d4565b91506137dd82876136d4565b91506137e98286613736565b6014820191506137f9828561377e565b60018201915061380982846136d4565b91508190509a9950505050505050505050565b600061382882846136d4565b915081905092915050565b7f4e487b7100000000000000000000000000000000000000000000000000000000600052602260045260246000fd5b6000600282049050600182168061387a57607f821691505b60208210810361388d5761388c613833565b5b50919050565b7f4e6f7420617574686f72697a6564000000000000000000000000000000000000600082015250565b60006138c9600e83612f0d565b91506138d482613893565b602082019050919050565b600060208201905081810360008301526138f8816138bc565b9050919050565b7f4e487b7100000000000000000000000000000000000000000000000000000000600052603260045260246000fd5b7f4e487b7100000000000000000000000000000000000000000000000000000000600052601160045260246000fd5b600061396882612f66565b915061397383612f66565b925082820190508082111561398b5761398a61392e565b5b92915050565b600061399c82612f66565b91507fffffffffffffffffffffffffffffffffffffffffffffffffffffffffffffffff82036139ce576139cd61392e565b5b600182019050919050565b7f4361736520616c72656164792065786973747300000000000000000000000000600082015250565b6000613a0f601383612f0d565b9150613a1a826139d9565b602082019050919050565b60006020820190508181036000830152613a3e81613a02565b9050919050565b60008190508160005260206000209050919050565b60006020601f8301049050919050565b600082821b905092915050565b600060088302613aa77fffffffffffffffffffffffffffffffffffffffffffffffffffffffffffffffff82613a6a565b613ab18683613a6a565b95508019841693508086168417925050509392505050565b6000819050919050565b6000613aee613ae9613ae484612f66565b613ac9565b612f66565b9050919050565b6000819050919050565b613b0883613ad3565b613b1c613b1482613af5565b848454613a77565b825550505050565b600090565b613b31613b24565b613b3c818484613aff565b505050565b5b81811015613b6057613b55600082613b29565b600181019050613b42565b5050565b601f821115613ba557613b7681613a45565b613b7f84613a5a565b81016020851015613b8e578190505b613ba2613b9a85613a5a565b830182613b41565b50505b505050565b600082821c905092915050565b6000613bc860001984600802613baa565b1980831691505092915050565b6000613be18383613bb7565b9150826002028217905092915050565b613bfa82612d42565b67ffffffffffffffff811115613c1357613c126127ee565b5b613c1d8254613862565b613c28828285613b64565b600060209050601f831160018114613c5b5760008415613c49578287015190505b613c538582613bd5565b865550613cbb565b601f198416613c6986613a45565b60005b82811015613c9157848901518255600182019150602085019450602081019050613c6c565b86831015613cae5784890151613caa601f891682613bb7565b8355505b6001600288020188555050505b505050505050565b60006040820190508181036000830152613cdd8185612f1e565b9050613cec6020830184612f57565b9392505050565b7f19457468657265756d205369676e6564204d6573736167653a0a333200000000600082015250565b6000613d29601c836136c9565b9150613d3482613cf3565b601c82019050919050565b6000819050919050565b613d5a613d5582612bab565b613d3f565b82525050565b6000613d6b82613d1c565b9150613d778284613d49565b60208201915081905092915050565b6000608082019050613d9b6000830187612bb5565b613da86020830186613301565b613db56040830185612bb5565b613dc26060830184612bb5565b95945050505050565b7f496e76616c6964207369676e6174757265206c656e6774680000000000000000600082015250565b6000613e01601883612f0d565b9150613e0c82613dcb565b602082019050919050565b60006020820190508181036000830152613e3081613df4565b9050919050565b7f73746f726545766964656e63652063616c6c6564000000000000000000000000600082015250565b6000613e6d601483612f0d565b9150613e7882613e37565b602082019050919050565b60006040820190508181036000830152613e9c81613e60565b90508181036020830152613eb08184612f1e565b905092915050565b7f496e76616c696420494400000000000000000000000000000000000000000000600082015250565b6000613eee600a83612f0d565b9150613ef982613eb8565b602082019050919050565b60006020820190508181036000830152613f1d81613ee1565b9050919050565b7f494420636865636b207061737365640000000000000000000000000000000000600082015250565b6000613f5a600f83612f0d565b9150613f6582613f24565b602082019050919050565b60006040820190508181036000830152613f8981613f4d565b90508181036020830152613f9d8184612f1e565b905092915050565b7f496e76616c6964206e616d650000000000000000000000000000000000000000600082015250565b6000613fdb600c83612f0d565b9150613fe682613fa5565b602082019050919050565b6000602082019050818103600083015261400a81613fce565b9050919050565b7f4e616d6520636865636b20706173736564000000000000000000000000000000600082015250565b6000614047601183612f0d565b915061405282614011565b602082019050919050565b600060408201905081810360008301526140768161403a565b9050818103602083015261408a8184612f1e565b905092915050565b7f4361736520646f6573206e6f7420657869737400000000000000000000000000600082015250565b60006140c8601383612f0d565b91506140d382614092565b602082019050919050565b600060208201905081810360008301526140f7816140bb565b9050919050565b7f4361736520657869737473000000000000000000000000000000000000000000600082015250565b6000614134600b83612f0d565b915061413f826140fe565b602082019050919050565b6000604082019050818103600083015261416381614127565b905081810360208301526141778184612f1e565b905092915050565b7f496e76616c696420495046532068617368000000000000000000000000000000600082015250565b60006141b5601183612f0d565b91506141c08261417f565b602082019050919050565b600060208201905081810360008301526141e4816141a8565b9050919050565b7f49504653204861736820636865636b2070617373656400000000000000000000600082015250565b6000614221601683612f0d565b915061422c826141eb565b602082019050919050565b6000604082019050818103600083015261425081614214565b905081810360208301526142648184612f1e565b905092915050565b7f496e76616c6964205348412d3235362068617368000000000000000000000000600082015250565b60006142a2601483612f0d565b91506142ad8261426c565b602082019050919050565b600060208201905081810360008301526142d181614295565b9050919050565b7f5348412d323536204861736820636865636b2070617373656400000000000000600082015250565b600061430e601983612f0d565b9150614319826142d8565b602082019050919050565b6000604082019050818103600083015261433d81614301565b905081810360208301526143518184612f1e565b905092915050565b7f496e76616c6964204d494d452074797065000000000000000000000000000000600082015250565b600061438f601183612f0d565b915061439a82614359565b602082019050919050565b600060208201905081810360008301526143be81614382565b9050919050565b7f4d494d45207479706520636865636b2070617373656400000000000000000000600082015250565b60006143fb601683612f0d565b9150614406826143c5565b602082019050919050565b6000604082019050818103600083015261442a816143ee565b9050818103602083015261443e8184612f1e565b905092915050565b7f496e76616c6964207369676e6174757265000000000000000000000000000000600082015250565b600061447c601183612f0d565b915061448782614446565b602082019050919050565b600060208201905081810360008301526144ab8161446f565b9050919050565b7f5369676e61747572652076657269666965640000000000000000000000000000600082015250565b60006144e8601283612f0d565b91506144f3826144b2565b602082019050919050565b50565b600061450e600083612f0d565b9150614519826144fe565b600082019050919050565b6000604082019050818103600083015261453d816144db565b9050818103602083015261455081614501565b9050919050565b7f45766964656e63652073746f7265640000000000000000000000000000000000600082015250565b600061458d600f83612f0d565b915061459882614557565b602082019050919050565b600060408201905081810360008301526145bc81614580565b905081810360208301526145d08184612f1e565b905092915050565b600060608201905081810360008301526145f28186612f1e565b905081810360208301526146068185612f1e565b90506146156040830184612f7f565b949350505050565b600061462982866136d4565b915061463582856136d4565b91506146418284613736565b601482019150819050949350505050565b7f4e6f2066696c657320696e206261746368000000000000000000000000000000600082015250565b6000614688601183612f0d565b915061469382614652565b602082019050919050565b600060208201905081810360008301526146b78161467b565b9050919050565b7f496e76616c6964206261746368207369676e6174757265000000000000000000600082015250565b60006146f4601783612f0d565b91506146ff826146be565b602082019050919050565b60006020820190508181036000830152614723816146e7565b9050919050565b6000819050919050565b61474561474082612f66565b61472a565b82525050565b600061475782866136d4565b91506147638285613736565b6014820191506147738284614734565b60208201915081905094935050505056fea264697066735822122015aebbbb9d4debfe5ce67fd12430199aac2bb566c6ab943d0aa6759b4f5e7edc64736f6c634300081c0033",
  "linkReferences": {},
  "deployedLinkReferences": {}
}